:020000040800F2
:1000000068280020654300088143000885430008F4
:10001000894300088D430008914300080000000058
:1000200000000000000000000000000095430008F0
:1000300099430008000000009D4300082143000888
:10004000A1430008A5430008A9430008AD430008E8
:10005000B1430008B5430008B9430008BD43000898
:10006000C1430008C5430008C9430008CD43000848
:10007000D1430008D5430008D9430008DD430008F8
:10008000E1430008E5430008E9430008ED430008A8
:10009000F1430008F5430008F9430008FD43000858
:1000A0000144000805440008094400080D44000804
:1000B0001144000815440008194400081D440008B4
:1000C0002144000825440008294400082D44000864
:1000D0003144000835440008394400083D44000814
:1000E0004144000845440008494400084D440008C4
:1000F0005144000855440008594400085D44000874
:100100006144000865440008694400086D44000823
:100110007144000875440008794400087D440008D3
:100120008144000885440008894400088D44000883
:100130009144000895440008994400089D44000833
:10014000A1440008A5440008A94400082F43000862
:10015000AD440008B1440008B5440008B9440008A3
:10016000BD440008C1440008C5440008C944000853
:10017000CD440008D1440008D54400080000000028
:10018000D9440008DD440008DFF82C0C016899B957
:100190004FF4803181604FF4805141604FF0FF3166
:1001A000C160016104214161DFF8101C0422C1F823
:1001B000B821DFF80C1C01600120704701F1080331
:1001C00013F0070305D001F10803C3F1080303F09E
:1001D00007035918D21A8161C26042F001034B60D3
:1001E000511828224A60DFF8D01B0969C1617047A5
:1001F0002DE9F84F054601F1080010F0070005D081
:1002000001F10800C0F1080000F0070000EB010A4E
:1002100002F1080010F0070005D002F10800C0F15B
:10022000080000F00700841803EB0A07A4EB0A009B
:10023000A0EB030843F00300CAF80400A74228BF5C
:1002400001F084F92079C00758BF01F07FF9B8F1B7
:10025000100F38BF01F07AF9A869844207D1E86825
:100260004044E860AF6140F00100786048E16869AF
:10027000844208D1A8684044A8606F6140F0010141
:100280007960C0513CE1606800F00301012940F051
:100290009F80C008C00000904FEAD00BBBF1200F38
:1002A0002FD2D4F80890E668B44208BF01F04EF9A6
:1002B0004C4508BF01F04AF96068C008C000B0EBC7
:1002C000CB0F18BF01F042F9B14506D128680121D2
:1002D00001FA0BF18843286077E005EBCB0000F1D1
:1002E0002801894502D0296989456CD32830864286
:1002F00002D02869864266D3C9F80C60C6F8089017
:1003000063E0D4F81890E668A64206D0A068296990
:1003100088421DD3C660B0601CE004F1140006687A
:1003200036B904F110000668A6B101E00846066877
:1003300006F114010A68002A02BF06F110010A68DA
:10034000002AF3D12969884202D30021016001E02B
:1003500001F0FCF8B9F1000F37D0E06905EB80003F
:1003600000F5987001688C4209D10660300014D104
:1003700068680121E26991408843686025E0286946
:10038000814508D3D9F81000A04214BFC9F8146001
:10039000C9F8106001E001F0D9F8B6B128698642C9
:1003A00011D3C6F81890216929B1814226BF316165
:1003B0008E6101F0CBF8606938B12969884202D3B7
:1003C0007061866101E001F0C1F800980419804471
:1003D000606840084000606048F00100786048F8BC
:1003E00007804FEAD806202E1FD205EBC60000F189
:1003F0002804A146B8F1100F38BF01F0A7F801207A
:10040000B0402968014202D10843286006E0A06894
:10041000296988422CBF814601F098F8A760C9F885
:100420000C70C7F80890FC606AE05FEA182008BF0B
:10043000002123D0B0F5803F28BF1F211ED2A0F598
:100440008071090C01F008018840A0F58052120C5F
:1004500002F004029040A0F580431B0C03F002035D
:10046000C1F10E01891AC91A984001EBD030C11DA3
:1004700028FA01F101F0010101EB400105EB8100D7
:1004800000F59872F9610020786138610120884098
:100490006B68034204D1184368601760BA611DE0BD
:1004A00010681F290EBF00214908C1F1190108FA7F
:1004B00001F100E010464268D208D200424510D057
:1004C000CA0F00EB820202F1100349001A68002AE9
:1004D000F0D129698B4211D31F60B861FF60BF6002
:1004E0000EE081682A69904228BF914206D3CF600E
:1004F0008760B960F8600020B86101E001F026F87B
:100500000AF10800BDE8F28F2DE9FE4F0446A56907
:1005100004F5DE7001688D4203D3426851188D42A4
:1005200002D380680028F5D1416800680E18A6F152
:100530002F0000F1080111F0070105D000F10801BA
:10054000C1F1080101F0070101EB000A05F11000FB
:10055000824538BFAA460AF1080B0AF1180900279C
:100560000198A0F1280200992046FFF727FE1BF012
:10057000070018BF00F0EAFF1B20CAF8040004F5CA
:10058000DE70B0E80E10ABE80E10ABF11001009871
:10059000C4F8BC010198C4F8C0010298C4F8C801AD
:1005A000C4F8C41100E0814609F104000721C9F82C
:1005B00004107F1C011DB142F5D3022FB8BF00F01B
:1005C000C5FFAA4500F09C80AAEB050041194A68C6
:1005D000520852004A6040F0010169604051C7086A
:1005E000202F1FD204EBC70101F12806B0461028C6
:1005F00038BF00F0ABFF012101FA07F0216801428A
:1006000002D10843206006E0B068216988422CBF0F
:10061000804600F09BFFB560C8F80C50C5F8088014
:10062000EE606DE0010A08BF002223D0B1F5803FE3
:1006300028BF1F221ED2A1F58072120C02F0080200
:100640009140A1F580531B0C03F004039940A1F5E0
:100650008046360C06F00206C2F10E02D21A921B38
:10066000B14002EBD131CA1D20FA02F202F00102C0
:1006700002EB410204EB820101F59873EA6100216B
:10068000696129610121914066680E4205D141EA04
:10069000060060601D60AB611DE019681F2A0EBF77
:1006A00000225208C2F1190200FA02F200E01946D3
:1006B0004B68DB08DB00834210D0D30F01EB8303D0
:1006C00003F1100652003368002BF0D120698642F6
:1006D00011D33560A961ED60AD6011E088682269D1
:1006E000914228BF904206D3C5608D60A860E96042
:1006F0000020A86104E003B0BDE8F04F00F026BF81
:1007000003B0BDE8F08FF8B504460D46DFF8A866E3
:10071000306808B9FFF738FD00F032FF01001CBF58
:100720000A6811F1010F00F08A80D4F8B0011018A6
:10073000C4F8B001D4F8B431834238BF0346C4F8DA
:10074000B431A06958BB206908B1814200D221614F
:10075000C4F8BC11C4F8C0210020C4F8C801306836
:1007600060624FF0FF3020622046202300F128060F
:10077000F660B66008305B1EF8D1DFF840068442B0
:1007800008BF283A27D054F8040CC00814EBC00066
:1007900008385118091AA1F1280201461BE004F596
:1007A000DE70034600E09B68CBB15E681F68F619F7
:1007B000B142F8D11E7B360711D4A669BE420ED3D2
:1007C000D3F804C06744BE4209D202EB0C00586063
:1007D000E0681218A1692046FFF7F0FC1EE02369CB
:1007E000994238BF21610346501800E09B688BB1E5
:1007F0001E688642FAD1187B00070BD43046196078
:100800005E6892195A602B460246204601B0BDE848
:10081000F040EDE400232046FFF776FEE0688542D5
:100820000DD2401BE060A1696A18A26140F001008E
:10083000506045F00300486001F10800F2BD00205F
:10084000F2BD2DE9F84F05468B460024CBF1000898
:100850005FEA1B2023D0B0F5803F28BF1F201ED2A7
:10086000A0F58071090C01F008018840A0F58052C4
:10087000120C02F004029040A0F580431B0C03F020
:100880000203C1F10E01891AC91A984001EBD03058
:10089000C11D2BFA01F101F0010101EB400005EB54
:1008A0008001D1F8301129B31F280EBF0022420861
:1008B000C2F119020BFA02F2002300E052004E6866
:1008C000F608F600A6EB0B06464503D20C465FEA97
:1008D00006080BD04E69D70F01EB87010969002E7E
:1008E0001CBF8E4233460029E8D1194600293BD16E
:1008F000002C3BD1012101FA00F0400041420843A5
:100900006968084000F0578141420840411E080BC9
:1009100000F0100021FA00F2510901F00801CA406C
:10092000930803F00403DA40560806F00206F2408A
:10093000C2F34007081818183018384422FA07F193
:10094000081805EB8000D0F830110DE0014648682A
:10095000C008C000A0EB0B0040453CBF80460C46E1
:1009600008690028F2D149690029F0D1002C00F073
:100970002281A868A0EB0B00804580F01C812869CB
:100980008442C0F016810BEB04060BEB080960688B
:10099000C008C000484518BF00F0D8FDB44280F040
:1009A0000881D4F818A0E768A74206D0A068296992
:1009B00088421DD3C760B8601CE004F114000768CA
:1009C00037B904F110000768A7B101E008460768CD
:1009D00007F114010A68002A02BF07F110010A6832
:1009E000002AF3D12969884202D30021016001E085
:1009F00000F0ACFDBAF1000F38D0E06905EB8000E3
:100A000000F5987001688C4209D10760380014D154
:100A100068680121E26991408843686026E028699E
:100A2000824508D3DAF81000A04214BFCAF8147047
:100A3000CAF8107001E000F089FDBFB12869874253
:100A400012D3C7F818A0206930B12969884226BF9F
:100A50003861876100F07AFD606938B129698842A0
:100A600002D37861876101E000F070FDB8F1100FEA
:100A700009D249F00300606009EB0400416841F0CD
:100A80000101416091E04BF00300606048F001001B
:100A9000706048F806804FEAD80020281BD205EB8A
:100AA000C00101F12807B846012101FA00F02968C8
:100AB000014202D10843286006E0B86829698842EB
:100AC0002CBF804600F042FDBE60C8F80C60C6F83E
:100AD0000880F76069E05FEA182008BF002223D091
:100AE000B0F5803F28BF1F221ED2A0F58071090CEF
:100AF00001F008018840A0F58052120C02F00402B7
:100B00009040A0F580431B0C03F00203C1F10E01DD
:100B1000891AC91A984001EBD030C11D28FA01F199
:100B200001F0010101EB400205EB820000F5987035
:100B3000F261002171613161012191406B680B42CA
:100B400003D11943696006601CE000681F2A0EBFCC
:100B500000215108C1F1190108FA01F100E0104625
:100B60004268D208D200424510D0CA0F00EB820280
:100B700002F1100349001A68002AF0D129698B425A
:100B800011D31E60B061F660B6600EE081682A691C
:100B9000904228BF914206D3CE608660B160F0607B
:100BA0000020B06101E000F0D1FC04F10800BDE8D4
:100BB000F28F00F0CBFCFBE02DE9F84F04468846AD
:100BC000606841420840411E080B00F01000C1401F
:100BD0004A0902F00802D1408B0803F00403D9400F
:100BE0004D0805F00205E940C1F340061018181839
:100BF00028443018F140081804EB8000D0F8300188
:100C000006464168C908C900A1EB080A09E0084680
:100C10004168C908C900A1EB080151453CBF8A469B
:100C2000064601690029F2D140690028F0D1206907
:100C30008642C0F0BB8008EB060B08EB0A0970681F
:100C4000C008C000484518BF00F080FC5E4580F039
:100C5000AD80B569F768B74206D0B06821698842AF
:100C60001DD3C760B8601CE006F11400076837B9EF
:100C700006F110000768A7B101E00846076807F110
:100C800014010A68002A02BF07F110010A68002A4D
:100C9000F3D12169884202D30021016001E000F014
:100CA00055FC002D34D0F06904EB800000F59870FD
:100CB00001688E4209D10760380011D160680121B6
:100CC000F26991408843606022E02069854205D343
:100CD0002869B04214BF6F612F6101E000F036FC5B
:100CE000B7B12069874211D3BD61306930B1216944
:100CF000884226BF3861876100F028FC706938B1EE
:100D00002169884202D37861876101E000F01EFC0E
:100D1000BAF1100F09D249F00300706009EB060028
:100D2000416841F0010141603CE048F0030070601F
:100D30004AF00100CBF804004AF80BA0D4F8088070
:100D4000B8F1000F2AD0D4F814904FEAD805202D1E
:100D500028BF00F0FBFB009504EBC50000F128055F
:100D60002F46B8F1100F38BF00F0F0FB01200099BA
:100D700088402168014202D10843206006E0A8684B
:100D8000216988422CBF074600F0E0FBC5F80890B7
:100D9000C7F80C90C9F80870C9F80C50C4F808A03E
:100DA000C4F814B006F10800BDE8F28F00F0CEFBE5
:100DB0000020BDE8F28F0000440E0020700B0020E0
:100DC0006859883C2DE9F04F83B00546C046C046BF
:100DD000DFF87447F52D80F0F4800B2D31BF10271C
:100DE00005F10B00C008C700FE082068F04010F0B5
:100DF000030F3DD0C04300F00100861904EBC6008C
:100E000000F12808D8F80850F7006868C008C0004A
:100E1000B84218BF00F09AFBD5F80890454508BFC6
:100E200000F094FB4D4508BF00F090FB6868C008D7
:100E3000C000B84218BF00F089FBC84505D1206842
:100E40000121B1408843206008E02069814526BF28
:100E5000C8F80890C9F80C8000F078FB47F0030050
:100E600068607819416841F0010141600835F0E09F
:100E7000A168B94280F0B780002800F09980012570
:100E800005FA06F14900B0404A4211430840414288
:100E90000840411E080B00F01000C1404A0902F052
:100EA0000802D1408B0803F00403D9404E0806F035
:100EB0000206F140C1F340081018181830184044D9
:100EC00021FA08F101EB000804EBC80000F1280941
:100ED000D9F808604FEAC80A7068C008C0005045D9
:100EE00018BF00F033FBD6F808B04E4508BF00F03D
:100EF0002DFB5E4508BF00F029FB7068C008C000EC
:100F0000504518BF00F022FBD94505D1206805FAED
:100F100008F18843206008E02069834526BFC9F8AE
:100F200008B0CBF80C9000F011FBAAEB070847F0D3
:100F300003007060B819009048F00101416000980A
:100F400048F80080A76867B3D4F814904FEAD70A2E
:100F5000BAF1200F28BF00F0F9FACDF804A004EB95
:100F6000CA0000F1280AD346102F38BF00F0EEFA6D
:100F7000019805FA00F02168014202D1084320607F
:100F800007E0DAF80800216988422CBF834600F0A8
:100F9000DDFACAF80890CBF80C90C9F808B0C9F887
:100FA0000CA0C4F808800098606106F1080550E0C4
:100FB0006068C0B339462046FFF7FEFD050012D039
:100FC00047E015F1400F28BF4FF0FF370BD205F176
:100FD0000B00C008C700606828B139462046FFF7FB
:100FE00030FC050035D1A168B9421CD3CA1B606929
:100FF000102A0AD339186161A26042F001034B60E4
:10100000525047F0030141600AE00022A260626191
:1010100041F00302426009184A6842F001024A6046
:1010200000F1080515E0E06887420DD2C01BE060C2
:10103000A1697A18A26140F00100506047F00300F6
:10104000486001F1080504E039462046FFF75BFBE4
:101050000546C046C0462846FFF752BB00B9704758
:101060002DE9F047A0F10804C046C046DFF8D85487
:1010700028698442C0F06082616801F00302012A9D
:1010800000F05A82CA084FEAC20808EB0409CA07EE
:101090002DD4226811F0030F00F050829044514289
:1010A0000C198442C0F0488269698C4200F0D480F7
:1010B0004FEAD20ABAF1200F6FD2A668E768BC42A5
:1010C00008BF00F043FAB44208BF00F03FFA60687E
:1010D000C008C000B0EBCA0F18BF00F037FABE421C
:1010E00046D12868012101FA0AF1884328604C455D
:1010F00080F02282D9F80400C10740F11D828107E7
:1011000000F17381A969894540F0BB80E8684044DB
:10111000E860AC6140F00101616069698C4202D114
:1011200000216961A960E969814280F00782DFF8E6
:101130001404006808B9FFF727F8A869002800F030
:10114000FD81E96829290BD305F5DE721368984201
:1011500003D35468E318984202D39268002AF5D169
:10116000E869884280F0EA814FF0FF30E861E5E10C
:1011700005EBCA0000F128018E4202D029698E4297
:1011800008D32830874202D02869874202D3F7600B
:10119000BE60ACE700F0DAF9A9E7A669E768A74204
:1011A00005D0A16881421CD3CF60B9601BE004F177
:1011B00014010F6837B904F110010F689FB101E005
:1011C00011460F6807F114021368002B02BF07F1E4
:1011D00010021368002BF3D1814202D30020086073
:1011E00001E000F0B3F9002E3FF481AFE06905EBB8
:1011F000800000F5987001688C4209D107603800C2
:1012000011D168680121E2699140884368606EE706
:101210002869864205D33069A04214BF77613761DF
:1012200001E000F093F9002F3FF461AF2869874295
:10123000B0D3BE61216929B1814226BF39618F6176
:1012400000F084F9606900283FF451AF29698842B1
:10125000A0D3786187614AE799F8040000F00300A1
:1012600003287FF444AFC5F80880D9F8040040088B
:101270004000C9F8040048F00100606048F80480AC
:101280005CE16969894508D1A8684044A8606C613F
:1012900040F001016160005150E1C008C00080448D
:1012A0004FEAD00ABAF1200F2FD2D9F80860D9F846
:1012B0000C70B94508BF00F049F9B14508BF00F00E
:1012C00045F9D9F80400C008C000B0EBCA0F18BF38
:1012D00000F03CF9BE4206D12868012101FA0AF16A
:1012E0008843286076E005EBCA0000F128018E42B1
:1012F00002D029698E426BD32830874202D02869F8
:10130000874265D3F760BE6064E0D9F81860D9F809
:101310000C704F4507D0D9F80800296988421DD3C1
:10132000C760B8601CE009F11400076837B909F11B
:1013300010000768A7B101E00846076807F114012B
:101340000A68002A02BF07F110010A68002AF3D1D7
:101350002969884202D30021016001E000F0F6F81B
:10136000002E37D0D9F81C0005EB800000F59870EE
:10137000016889450AD10760380012D168680121E7
:10138000D9F81C2091408843686023E02869864290
:1013900005D33069484514BF7761376101E000F03B
:1013A000D5F8BFB12869874212D3BE61D9F81010B1
:1013B00029B1814226BF39618F6100F0C7F8D9F8A1
:1013C000140038B12969884202D37861876101E04D
:1013D00000F0BCF848F00100606048F804806869DB
:1013E00084420BD1C5F80880A8E040084000C9F845
:1013F000040048F00100606048F804804FEAD80714
:10140000202F20D205EBC70000F128094E46B8F185
:10141000100F38BF00F09AF80120B8402968014247
:1014200002D10843286007E0D9F8080029698842FA
:101430002CBF064600F08AF8C9F80840F460A660A0
:10144000C4F80C907AE05FEA182008BF002123D08E
:10145000B0F5803F28BF1F211ED2A0F58071090C76
:1014600001F008018840A0F58052120C02F004023D
:101470009040A0F580431B0C03F00203C1F10E0164
:10148000891AC91A984001EBD030C11D28FA01F120
:1014900001F0010101EB400105EB810000F59872BC
:1014A000E161002060612061012088406B68034297
:1014B00004D1184368601460A2611DE010681F2900
:1014C0000EBF00214908C1F1190108FA01F100E03D
:1014D00010464268D208D200424510D0CA0F00EB35
:1014E000820202F1100349001A68002AF0D129692A
:1014F0008B4211D31C60A061E460A4600EE081689F
:101500002A69904228BF914206D3CC608460A160D2
:10151000E0600020A06101E000F018F8286A401E99
:1015200028620BD1D5F8C40100E080680028FCD106
:101530004FF0FF30286201E000F008F8C046C046D6
:10154000BDE8F087440E0020700B0020012000F061
:101550002BB810B450F8041B81B102681218001D9A
:1015600050F8043BDC0744BFA9F10104E31852F82A
:10157000044B43F8044B091FF9D1EBE710BC70474B
:101580000649086808B10020704705480860054909
:10159000C908C900091A0160704700BF600E002029
:1015A000680E002068230020C046C046024A110091
:1015B0001820ABBEFBE700BF260002000EB418B532
:1015C00004460898012817D1A06BDFF85C1820F4B6
:1015D0008030A063E0680840E060E06820F44010DC
:1015E000E0600F98012803D1E06840F48010E060CB
:1015F000204600F004FC09E0E06840F04000E060B4
:10160000204600F0FCFB4FF48030A06306980128D0
:1016100003D1A06840F02000A060002012BC5DF85B
:1016200010FB816841F0010102E08168490849002E
:1016300081600020704780B5C26822F0C042C2605D
:10164000012903D1C16841F0005103E019B9C16813
:1016500041F08041C160322000F06DBB0EB42DE935
:10166000F84104464FF00008A06B40F40020A0634E
:10167000119D1DB9A06B40F40010A06304F56060DB
:10168000002104F500670160386838600C98012873
:1016900003D1099810B1012100E00321204600F098
:1016A00089F81021204600F069F8204600F075F80E
:1016B0000020386178614FF0FF30B8614046F86132
:1016C000FF204FF0904104E000231361906008F187
:1016D0000108079A90450AD204EB481202F51062FD
:1016E0001368002B4EBF116000231360ECE700224B
:1016F00003E000261E619860521C079B9A420AD2A2
:1017000004EB421303F530631E68002E4EBF1960D0
:1017100000261E60EDE7386920F4807038610A9871
:10172000012809D1DFF804173963396B41F480319E
:1017300041F003013963396B0021A1616FF08041F1
:10174000616118B9A06940F01000A061A069DFF8DC
:10175000E0160843A0610D9818B1A06940F0080098
:10176000A061012D05D1A06940F0804040F0040047
:10177000A0610020BDE8F2015DF810FB890141F095
:1017800020010161DFF8AC16491E01D1032070472A
:1017900002699206F8D40020704710210161DFF839
:1017A0009416491E01D1032070470269D206F8D46D
:1017B0000020704700F50060A9E200F500600021FC
:1017C000826812F0060F10D0826802F00602022A28
:1017D0001DBF826802F00602062A032105D0806838
:1017E00000F00600042808BF02210846704730B503
:1017F0004D780C7800F500630122012D02FA04F403
:10180000DD69DFF8342616D1A4B22C43DC610B78F5
:1018100000EB431000F510600468240420D4046831
:101820008D68C9786D056D0D45EA814141EA8351A6
:101830001143214313E045EA0444DC610B7800EBDB
:10184000431000F5306003681B0409D403688C68FA
:10185000C9786405640D44EA81411143194301606C
:10186000002030BD30B54D780C7800F500620123C2
:10187000012DD56B03FA04F410D1A4B225EA0404B7
:10188000D463D4690D78AB409BB224EA0303D361DF
:10189000097800EB411000F510600DE025EA0444E2
:1018A000D463D4690D78AB4024EA0343D36109784B
:1018B00000EB411000F53060016821F40041A4E123
:1018C000F8B50C7891F801C0DFF87055DFF8706555
:1018D000034603EB441703F50064BCF1010F40F02D
:1018E0009C80D1F814C007F51067BCF1000F14D12B
:1018F0003D6935403D610D7803EB451505F51065F3
:101900002E6946F400262E610D7803EB451505F58A
:1019100010652E69F60CF60444E0D7F810C04FEAC3
:10192000DC4C4FEACC4CC7F810C00F7803EB4717DC
:1019300007F51067D7F810C006EA0C063E610E786E
:101940008F6803EB461606F51066D6F810C0D1F87E
:1019500014E0BE44AEF1010EBEFBF7F705EAC74541
:1019600045EA0C0535610D7803EB451505F5106565
:101970002E694F697F0356EA57362E61CD78012DC7
:1019800011D10D7803EB451505F510652E6926F08C
:10199000C0462E610D7803EB451505F510652E69DF
:1019A00046F000562E61012A07D10D780E6903EB2F
:1019B000451505F510656E610AE0CD78012D0AD058
:1019C0004D69B5B1656B0F780126BE40354365633F
:1019D000CD78012D0DD10D78A46803EB451505F5E3
:1019E0001065E4052C6854BF44F0005444F0805462
:1019F0002C600C7803EB441303F510631C6844F06F
:101A000004441C60CB78012B64D100924B690A78A6
:101A1000C9689BB200F0FCF85CE007F5306007692C
:101A2000FF0CFF040761087803EB401000F53060FD
:101A300007693E40066108788E684F6903EB4010E5
:101A400000F530606FB90569760355EA56350561D2
:101A5000087803EB401000F53060056945F4002577
:101A600014E0F7197F1EB7FBF6F6B6B2076905EA70
:101A7000C6453D430561087803EB401000F5306032
:101A800005698F687E43760355EA56350561012A5C
:101A900006D10878CA6803EB401000F53060426157
:101AA000C87801280DD10878A26803EB401000F532
:101AB0003060D205026854BF42F0005242F08052BA
:101AC0000260087803EB401000F53060016841F0D7
:101AD000044101600020F2BD30B50B784D7800EB79
:101AE0004314DFF85C33012D58D14D6904F51064BF
:101AF000002D256913D12B4023610B7800EB431394
:101B000003F510631C6944F400241C610B7800EB9E
:101B1000431303F510631C69E40CE40423E0ED0CAB
:101B2000ED0425610C7800EB441404F5106425697C
:101B30002B4023618B684C69A34288BF23464B61CD
:101B40000B7800EB431303F510631C6944F4002485
:101B50001C610B7800EB431303F510631C694D699E
:101B60006D0354EA55341C61012A07D10A780B69C8
:101B700000EB421202F51062536109E04A693AB182
:101B800000F500620124536B0D78AC40234353638E
:101B9000097800EB411000F5106033E004F5306483
:101BA0002569ED0CED0425610C7800EB441404F577
:101BB000306425692B4023614B690BB18B684B6105
:101BC0000B7800EB431303F530631C6944F40024E5
:101BD0001C610B7800EB431303F530631C698D68BF
:101BE0006D0354EA55341C61012A06D10A78CB688A
:101BF00000EB421202F530625361097800EB4110AC
:101C000000F53060016841F004410160002030BD02
:101C100070B5049C002564B9DB1C07E000EB0234BE
:101C200004F5805451F8046B26606D1CB5EB930FDE
:101C3000F4D3002070BD10B50023D21C05E000F5E0
:101C400080545B1C246841F8044BB3EB920FF6D32D
:101C5000084610BD0A784B7800EB4212012B0ED1DA
:101C600002F510621368002B03D4136823F080433D
:101C70001360097800EB411000F510600DE002F5EB
:101C800030621368002B03D4136823F08043136081
:101C9000097800EB411000F53060016841F4001153
:101CA00037E00A784B7800EB4212012B10D102F595
:101CB0001062136823F400131360CA78032A18BF54
:101CC000022A19D1097800EB411000F510600FE0ED
:101CD00002F53062136823F400131360CA78032AF4
:101CE00018BF022A08D1097800EB411000F53060D6
:101CF000016841F0805101600020704700F50060EC
:101D00000901026822F4FE62026001F4FE610268C9
:101D1000114301600020704780B500F50060416804
:101D200021F0020105E080B500F50060416841F056
:101D300002014160032000F0B7F8002002BD4169B4
:101D400080690840704700F500608169C0690840FB
:101D5000000C704700F500608169C069084080B2DE
:101D6000704700EB411101F5306100F500608968B2
:101D700040690840704700F5006200EB41101369AC
:101D8000526B00F5106022FA01F1806801F0010148
:101D900043EAC11108407047406900F001007047F4
:101DA00000F5106100F500600A68D20AD2020A60EC
:101DB000826802F00602042A03D10A6842F0030294
:101DC0000A60416841F4807141600020704700F56D
:101DD0003060002303610129036943F40023036198
:101DE000036943F018030361036943F0C0430361CF
:101DF00003D142614FF08021016000207047DFF87D
:101E000034100A46521E08D00369002BFAD5026925
:101E100042F001020261491E01D1032070470269AC
:101E2000D207F8D400207047BFFFBDFF000180003B
:101E300000383C80410D0300008000100000F81FB6
:101E4000FFFF07E080B51E48016841F400710160A2
:101E5000016841F480610160016841F480710160B2
:101E6000032000F033F8002000F004F800F09BF8A5
:101E7000002002BD10B5044612484FF47A71006884
:101E8000B0FBF1F000F061F8002221464FF0FF3086
:101E900000F029F8002010BD0B480168491C0160C2
:101EA000704709480068704711B581B0FFF7F9FF26
:101EB0000446FFF7F6FF0199001B8842F9D313BDD2
:101EC000003C0240500100205C0E00202C494FF6DF
:101ED000FF030A681A4000F0070042EA0020294A7E
:101EE00010430860704730B5254B1B68C3F30223CD
:101EF000C3F10704052C28BF04241D1D072D34BF82
:101F00000023DB1E012505FA04F4641E21409940DC
:101F100005FA03F35B1E1A4011430901002806D598
:101F200000F00F00184A801800F8041C30BD174A52
:101F3000815430BD4109164AFFE7012300F01F001C
:101F400003FA00F042F821007047401EB0F1807F94
:101F500001D3012070470F49F02248600E480270FB
:101F60000020886007200860002070470949042885
:101F700008680CBF40F0040020F0040008607047BF
:101F80000CED00E00000FA0518ED00E000E400E0D0
:101F900000E100E010E000E023ED00E080B500F09B
:101FA00001F801BD704780B50720FFF78FFF0022C1
:101FB00000216FF00B00FFF796FF002211466FF033
:101FC0000A00FFF790FF002211466FF00900FFF7AB
:101FD0008AFF002211466FF00400FFF784FF002201
:101FE00011466FF00300FFF77EFF002211466FF0ED
:101FF0000100FFF778FFBDE80840002211464FF0CE
:10200000FF30FFF770BF30B58BB0054600240DB927
:10201000012049E0032085F8B903284600F086FB3B
:102020002868FFF702FB83B000F040F80EBC286878
:10203000FFF7C4FA28680021FFF7FDFA1C200123EE
:1020400000FB045101F13802537081F83840D4800C
:102050000021D1709160D160641C51610F2CEFD3CD
:1020600000240B4600FB045101F5FC72537081F80B
:10207000F841CC87D3709360D3605361296801EB3A
:102080008401641CC1F804310F2CEBD383B000F041
:102090000DF80EBC2868FFF7E1FA012085F8B903B6
:1020A0002868FFF740FE00200BB030BD291D6846B0
:1020B000342200F09FBC10B5044694F8B803012800
:1020C00001D1022010BD00F0E8F92068FFF7A9FA5D
:1020D000E9E12DE9F84F044600252068009000262C
:1020E000FFF75AFE002840F0C68100F0D3F900281F
:1020F00000F0C18100F0CEF9800704D52068416965
:1021000001F00201416100F0C5F900034BD52068E0
:10211000FFF719FE5FEA000A44E05FEACA703ED5A5
:102120002068F1B2FFF71DFE0746009800EB46104D
:1021300000F53069F80725D50120C9F808002069A5
:10214000012811D11C2000FB064101F50070D1F8D7
:102150000022D9F810305B03B2EB53320261D1F8A0
:102160000012426889184160F1B2204600F01EFB5F
:102170002069012808BF002E04D1D4F80C0208B948
:1021800000F082F9380705D5204600F009FB082049
:10219000C9F80800F80644BF1020C9F80800761CEA
:1021A0005FEA5A0AB9D1009800F50069206809F180
:1021B0000407FFF7C4FD400358D52068FFF7CAFDA8
:1021C0005FEA000A2E4650E05FEACA704AD52068EE
:1021D000F1B2FFF7D0FD8046009800EB461000F505
:1021E000106B5FEAC8701ED5386B0121B14088437F
:1021F00038630120CBF808002069012806D11C2093
:1022000000FB0640016C426C89184164F1B2204623
:1022100000F0D5FA2069012808BF002E03D1E06C38
:1022200008B900F031F95FEA087044BF0820CBF824
:1022300008005FEAC86044BF1020CBF808005FEADE
:10224000486044BF4020CBF808005FEA887044BF74
:102250000220CBF808005FEA086003D5314620462B
:1022600000F01EFA761C5FEA5A0AADD100F012F9AE
:10227000002809D500F001F9204600F0D1FA2068C5
:10228000416901F00041416100F004F900050AD5FF
:102290007868C00744BF204600F0ADFA2068416965
:1022A00001F40061416100F0F5F8C00442D500215D
:1022B00000F0E3F82068FFF761FAFF2009E00099D9
:1022C00001EB451101F5106201F530619060886005
:1022D0006D1C61688D42F2D34FF0FF307861B869B0
:1022E00040F00110B861206B50B1D9F8840040F083
:1022F0000B00C9F88400386C40F00B00386407E02C
:10230000386940F00B003861F86840F00B00F86065
:1023100004F56F72D9F8000020F4FE60C9F80000DF
:1023200021692068C9B2FFF752FD2068416901F4B4
:102330008051416100F0AEF8800425D52068FFF798
:102340002FFD2068C16821F47051C1602068FFF73B
:1023500034FA40B9E0604FF4007060612068C168F1
:1023600041F4105107E00320E060402060612068E4
:10237000C16841F4C051C160204600F02CFA2068C9
:10238000416901F40051416100F084F8C00631D583
:102390001C222068816921F0100181610098006A87
:1023A00000F00F0112FB014101F5FC75C0F3434140
:1023B000C0F30A1702290DD147F6F071084214D074
:1023C000C0F30A12E9680098FFF735FCE868384462
:1023D000E86007E0062908D10822009804F56F712B
:1023E000FFF729FCA8693844A8612068816941F099
:1023F0001001816100F04EF8000707D5204600F07B
:10240000E6F92068416901F00801416100F042F8F5
:10241000C00208D5F1B2204600F00AFA20684169EE
:1024200001F48011416100F035F8800208D5F1B265
:10243000204600F0F9F92068416901F4001141617A
:1024400000F028F8400007D5204600F0F5F9206894
:10245000416901F08041416100F01CF840070AD554
:1024600020684568680744BF204600F0E9F9206805
:10247000416829434160BDE8F18FD9F80400400864
:102480004000C9F804007047206804F56F7201210C
:10249000FFF79DBC2068FFF752BC012084F8B80309
:1024A0002068FFF739BC002084F8B80310BD10B5D0
:1024B000044694F8B803012801D1022010BD00F0B1
:1024C00004F82068FFF71AFCEDE7012084F8B80350
:1024D000704738B5044601F07F001C2515FB00400D
:1024E0000D064CBF383000F5FC7001F07F0505701B
:1024F000C90941708260C370417809B10178C18017
:10250000022B04BF0021017194F8B813012901D1F5
:10251000022032BD00F01FF8FFF769F96FE010B537
:10252000044601F07F001C2212FB00400A064CBF4B
:10253000383000F5FC7001F07F020270C90941706B
:1025400094F8B813012901D1022010BD00F003F85E
:10255000FFF788F9A7E7012184F8B813014620683E
:10256000704738B50446084600F07F011C2515FB6E
:10257000014101F5FC71CA604B6100238B614B7016
:1025800000F07F030B702069012808BF0A6194F8EE
:10259000B803012801D1022032BD24E001F00F016F
:1025A0001C2212FB0100D0F8100280B2704738B52F
:1025B0000446084600F07F011C2515FB0141383117
:1025C000CA604B6100238B6101234B7000F07F03D5
:1025D0000B702069012808BF0A6194F8B80301282C
:1025E00001D1022032BDFFF770FF002B2269206865
:1025F000D2B202D1FFF770FA01E0FFF761F90020D3
:1026000084F8B80332BD38B504461C200B0605D546
:1026100001F07F0310FB0340383003E010FB014062
:1026200000F5FC700123837001F07F050570C90976
:10263000417094F8B813012901D1022032BD84F809
:10264000B83301462068FFF705FB35B921692068DA
:1026500004F56F72C9B2FFF7BAFBD0E710B50446B4
:102660001C200A460B0605D502F07F0310FB034031
:10267000383003E010FB014000F5FC70002383704C
:1026800001F07F010170D109417094F8B81301295C
:1026900001D1022010BDFFF75EFFFFF702FB02E74A
:1026A0002DE9F04580460D461C2000FB058000F119
:1026B00038077869B969D8F800A0441AB86883B0B7
:1026C000A04238BF0446E01C860816E0441AB868E9
:1026D000A04238BF0446E01C8608D8F81000C0B2FB
:1026E0000090A3B2F968EAB25046FFF791FAF86891
:1026F0002018F860B8692018B8610AEB451000F599
:102700001060806980B286423EBF7869B9698142B3
:1027100001D20028DAD134B90AF500600122416BF8
:10272000AA40914341630020BDE8FE850068B0F1F6
:10273000A04F00D0704710B586B04FF400700190E4
:1027400000200290039001A9584C204600F07EF929
:102750004FF4E0500190022002900020039004907A
:102760000A20059001A9204600F070F95048002287
:10277000016841F08001016000210091016941F48C
:10278000804101610021006900F4804000900098C0
:102790004320FFF7A8FB4320FFF7CCFB06B010BD9A
:1027A00000F56F71D0F8EC0300F076BA1C2212FB32
:1027B0000102D0F8EC03D2F8042200F099BA1C22EE
:1027C00012FB0102D0F8EC03526C00F0C4BAD0F84E
:1027D000EC0300F042BB10B504460121E06800B9EB
:1027E0000021D4F8EC0300F029FBD4F8EC03BDE899
:1027F000104000F002BB10B50446D4F8EC0300F022
:1028000020FB206800F56060016841F00101016073
:10281000206A20B12748016841F00601016010BD1F
:10282000D0F8EC0300F013BBD0F8EC0300F025BBAC
:10283000D0F8EC0300F01FBBD0F8EC0300F01FBB96
:10284000D0F8EC0300F01DBB10B5017851BB1A4C59
:10285000C4F8EC03C0F820424FF0A04020600420F0
:1028600060600220E0600020206160610220A061C1
:102870000020E06120626062E06220632046FFF792
:10288000C2FB08B100F03AFC8021204600F055FC64
:1028900040220021204600F032FC80220121204607
:1028A00000F02DFC002010BD0000000000000240E0
:1028B0003438024010ED00E05C01002010B500F05B
:1028C00031F8FFF7F8FB18B102280CBF01240224ED
:1028D000204610BD38B51C461346D0F8200200250E
:1028E0002246FFF7F6FD18B102280CBF012502258C
:1028F000284632BD10B500F015F8FFF710FE18B1EC
:1029000002280CBF01240224204610BD10B500F09F
:1029100009F8FFF778FE18B102280CBF0124022441
:10292000204610BDD0F820020024704710B5FFF7F4
:10293000F9FFFFF793FE18B102280CBF012402240F
:10294000204610BDD0F8200201F07F021C2313FBAB
:102950000200090602D590F83A00704790F8FA0193
:10296000704710B5FFF7DEFFFFF7A1FD18B1022891
:102970000CBF01240224204610BD10B5FFF7D2FF82
:10298000FFF715FE18B102280CBF012402242046CF
:1029900010BD10B5FFF7C6FFFFF7E3FD18B1022821
:1029A0000CBF01240224204610BDD0F82002FFF7FE
:1029B000F5BD50F8041B61B150F8042BD30744BF98
:1029C000A9F101039A18002342F8043B091FFAD128
:1029D000EFE7704762B38B0708D0521E11F8013B36
:1029E00000F8013B00F024808B07F6D1830740F00C
:1029F000208000BF103A07D330B4B1E83810103A45
:102A0000A0E83810F9D230BC530724BFB1E8081051
:102A1000A0E8081044BF51F8043B40F8043BD2073B
:102A200024BF31F8022B20F8022B44BF0B7803702F
:102A30007047083A07D3B1E80810083A40F8043B59
:102A400040F804CBF7D25307E4E700002DE9F8473C
:102A500000226D4BDFF8B481DFF8B4914FF00F0A1C
:102A6000012707FA02FC0F680CEA0707674540F0E8
:102A7000B7804C68022C18BF122C10D1D40800EB80
:102A8000840E02F00704DEF82050A4000AFA04F6CF
:102A9000B5430E6906FA04F42C43CEF820404FEA01
:102AA000420E05680E79032404FA0EF4E44306F09E
:102AB0000306254006FA0EF6354305604D68012DE4
:102AC00018BF022D03D0112D18BF122D0FD185680C
:102AD000CE68254006FA0EF635438560456825EA3E
:102AE0000C064D68C5F30015954035434560C56833
:102AF00025408C6804FA0EFE4EEA0504C4604C685A
:102B0000E4006DD5002400944FEA920CD9F80040FF
:102B100044F48044C9F8004002F00305D9F80040AD
:102B200004F480440094AE00009C58F82C400AFA4B
:102B300006F5AC43374DA84208BF002522D0364DDC
:102B4000A84208BF01251DD0344DA84208BF022568
:102B500018D0334DA84208BF032513D0314DA842E9
:102B600008BF04250ED0304DA84208BF052509D066
:102B70002E4DA84208BF062504D02D4DA8420CBFFB
:102B800007250825B5402C4348F82C40FD431C6818
:102B900005EA040E4C68E40348BF47EA0E0EC3F88A
:102BA00000E05C6805EA040E4C68A40348BF47EAED
:102BB0000E0EC3F804E09C6805EA040E4C68E402BB
:102BC00048BF47EA0E0EC3F808E0DC6805EA040CCB
:102BD0004C685FEA842E48BF47EA0C0CC3F80CC06F
:102BE000521C102AFFF43CAFBDE8F1870069084091
:102BF00018BF0120C0B2704702B909048161704753
:102C00004269514041617047003C01400838014031
:102C10004438024000000240000402400008024024
:102C2000000C024000100240001402400018024054
:102C3000001C024080B508B9022002BDD0F8143251
:102C400013B10023C0F8143209B1C0F810120121E9
:102C500080F8FC110270FFF7F7FD002002BD002292
:102C6000002914BFC0F8141202221046704780B524
:102C7000FFF724FE002002BD10B5D0F81422022474
:102C80001AB11268904700B90024204610BD80B5E3
:102C9000D0F814225268FDE038B5044604F50275F8
:102CA000284600F0FFFB0120C4F8F40104F5FA7097
:102CB000418B4160007D10F01F0103D002290BD031
:102CC00005D30EE02946204600F03CFA0EE02946E6
:102CD000204600F0A5FA09E02946204600F0BCFA9B
:102CE00004E000F080012046FFF710FE002032BD16
:102CF00038B50446104604F5FA7309BBD4F8F4213C
:102D000004F58271032A24D18D68CA68AA420AD2C6
:102D1000AB1A8B60934238BF1A46014692B22046E6
:102D200000F019FC15E01A6A106928B1187A032816
:102D300002D1116920468847204600F014FC08E0C3
:102D40001A6A906928B1187A032802D1926920463C
:102D50009047002032BD38B50446104604F5FA7598
:102D600000293FD1D4F8F42104F11401022A33D10F
:102D70008A68CB6893420AD2D21A8A60014692B21C
:102D8000204600F0D7FB00220023114614E04868DB
:102D9000B0FBF3F103FB110191B9984210D36968BC
:102DA00088420DD200220021204600F0C3FB002003
:102DB00068600346024601462046FFF7EAFD0BE045
:102DC0002A6AD06828B1287A032802D1D16820461F
:102DD0008847204600F0CCFB287B01280BD100203F
:102DE000287308E02A6A506928B1287A032802D19A
:102DF000526920469047002032BD10B5044640235A
:102E000000220021FFF766FD4020C4F810010346B0
:102E1000002280212046FFF75DFD40202062012036
:102E200004F5FE7284F8FC01D06928B192696168EA
:102E30005268C9B220469047002010BD017400209E
:102E4000704790F8FC1180F8FD11042101E090F822
:102E5000FD1180F8FC110020704780B590F8FC113E
:102E6000032906D100F5FE718969C9690A0018BFF6
:102E70008847002002BD00207047002070470020D6
:102E8000704780B5012180F8FC11D0F81422416808
:102E90005268C9B29047002002BD0000FEF7D2FF81
:102EA00000F01CF800F071F800F06EFB7C4C7D4DDA
:102EB00002E0204600F084FB95F900005528FBD184
:102EC0000020287020785A28F6D160781028F0D099
:102ED0002028F1D1204600F0DBFBEDE700B593B0F0
:102EE000002000907048016841F080510160006846
:102EF00000F0805000900098002000906B4801681E
:102F000041F480410160006800F480400090009826
:102F1000012006904FF48030079002200C904FF46F
:102F200080000D9019200E904FF4A8700F90022091
:102F300010900720119006A800F0B0FD00B1FEE748
:102F40000F20019002200290002003904FF4A05027
:102F500004904FF480500590052101A800F0E3FE95
:102F600000B1FEE700F0A1FF4FF47A71B0FBF1F081
:102F7000FEF7EBFF0420FEF7F9FF002200214FF0DF
:102F8000FF30FEF7B0FF13B000BD70B586B0002073
:102F9000009000224648474C016841F01001016052
:102FA000016801F0100100F08FF841F004010160A8
:102FB000016801F0040100F087F841F08001016030
:102FC000016801F0800100F07FF841F0010101602B
:102FD000016801F0010100F077F841F002010160A1
:102FE000016801F0020100F06FF841F00801016092
:102FF0003F21006800F00800009000982046FFF78D
:10300000FBFD012201212046FFF7F6FD2A4D00229B
:103010004FF470412846FFF7EFFD284E00224FF491
:1030200000713046FFF7E8FD3F2000F05FF82046D2
:10303000FFF70CFD0120019000F04CF82046FFF74F
:1030400005FD0120019001A91D4802900020039078
:103050001C48FFF7FBFC042000F042F83046FFF765
:10306000F5FC4FF4704000F041F82846FFF7EEFC05
:10307000202000F035F82846FFF7E8FC4AF2E82067
:1030800000F034F83046FFF7E1FC4FF4A040019027
:10309000112000F01FF83046FFF7D8FC06B070BDD5
:1030A00070070020650E002040380240007000408C
:1030B0003038024000080240000C02400004024088
:1030C00000001110000002400091009900210091C1
:1030D00001687047029000200390049001A9704796
:1030E000019000200290039001A9704701900120F7
:1030F000029000200390049001A97047FEE730B5CC
:1031000000680023446A19B944EA0241816212E06E
:10311000856A04E000EB83055B1CD5F8045104EBE1
:103120001544DBB24D1EAB42F4D300EB810044EA00
:103130000241C0F80011002030BD0068416200204B
:103140007047000038B54B78044604F1080004F5D8
:10315000FE72092B25D8DFE803F03C51244D2409E9
:1031600005242B27204600F0E1F857E08888002846
:1031700004BFC888002814D1887800F07F0594F82F
:10318000FC0103280DD0957029462046FFF7E9FB86
:1031900000F05FF8002D14BF0220012084F8FC012C
:1031A0003CE000F03DF939E0204600F03BF935E025
:1031B000CA88012AF5D194F8FC21022A04D0032AF6
:1031C000EFD10122211D11E00021A1600122014661
:1031D0000CE094F8FC319B1E012BE2D8926801218F
:1031E00002B103214160022204F10C01204600F0EB
:1031F0009AF913E04888012810D108E094F8FC01FE
:10320000801E0128CDD84888012807D10020906071
:10321000204692699268904700F01BF8002032BD6A
:1032200038B504460D4694F8FC0103280DD1A88852
:10323000C0B2022809D2D4F81422204692689047DE
:10324000E88820B900F005F801E000F0E9F8002076
:1032500032BD204600F087B970B50D460446287887
:10326000297900F0600004F5FE76202802D100F0F4
:1032700057F853E06A7801F07F00002A2BD0012A2A
:1032800014D0032A4AD194F8FC01022802D0032862
:1032900003D041E0002941D010E0688828B9002916
:1032A0001EBF80292046FFF731FB0FE094F8FC2178
:1032B000022A02D0032A03D02EE079B3802912E03B
:1032C0006A885ABB20B12046FFF730FB00F028F88F
:1032D000FFF7BFFF22E094F8FC21022A02D0032A64
:1032E00006D019E0002819D02046FFF70FFB15E0A3
:1032F00004EB00100A064CBF00F1140500F58275BE
:103300002046FFF71FFB00B101202860022229465A
:10331000204600F008F901E000F081F8002070BDBF
:10332000B2692946926820461047000038B50D461C
:1033300004466888020A04F50471012A08D0022AAA
:103340001ED0032A29D0062A53D0072A58D05FE07E
:1033500000F061F8126800A99047BDF8001000293C
:103360001CBFE98800290AD0BDF800208A4288BF26
:103370000A460146ADF80020204600F0D4F831BDE1
:10338000207C4968002800A804D1896A8847022166
:103390004170E2E7C96A8847F9E7C0B2052837D823
:1033A000DFE800F003090F151B2100F034F8526824
:1033B00000A99047D1E700F02EF8926800A9904745
:1033C000CBE700F028F8D26800A99047C5E700F0E5
:1033D00022F8126900A99047BFE700F01CF8526973
:1033E00000A99047B9E700F016F8926900A9904744
:1033F000B3E7207C60B9496800A8496B8847ACE70F
:10340000207C28B9496800A8096B88470721BFE7D5
:1034100000F005F831BDD4F81022207C7047294611
:10342000204653E070B50D4604461D4E6888307046
:10343000317802292FD294F8FC210846022A02D0C2
:10344000032A0BD027E009B36060032084F8FC0155
:103450002046FFF711FC022818D11CE041B90220D8
:1034600084F8FC01002060602046FFF710FC0DE0AE
:10347000616888420AD0C9B22046FFF708FC31785B
:1034800061602046FFF7F8FB022804D02046BDE823
:10349000704000F068B829462046BDE8704015E04D
:1034A000660E00200A7802704A7842708A78CB78DB
:1034B00012EB032242800A794B7912EB03228280BD
:1034C0008A79C97912EB0121C180704710B5044691
:1034D0008021FFF71BFA2046BDE810400021FFF7CE
:1034E00015BA00B9704730B50346002400E0641CEB
:1034F00013F8015B002DFAD12406E30D9B1C138009
:1035000012880A7003224A70022208E0D2B210F830
:10351000013B5354521CD2B200235354521C037823
:10352000002BF3D130BD80B50223C0F8F4318261A5
:10353000C26100E080B513460A460021FFF71DFA7C
:10354000002002BD80B50323C0F8F431C0F8082183
:10355000C0F80C2100E080B513460A460021FFF7B1
:1035600018FA002002BD80B5042100F006F8E5E756
:1035700080B5052100F001F8F1E7C0F8F411002250
:10358000002311467047000010B5094C094900227C
:103590002046FFF74FFB08492046FFF760FB07492D
:1035A000204600F081FD2046BDE81040FFF75FBBDC
:1035B0004C05002004010020CC0000203401002034
:1035C00038B50546304CAA78E8782979012A06D022
:1035D00024D3032A09D005D3042A10D031BD00F02A
:1035E0001EF804E000F029F801E000F034F8A5200E
:1035F000207068786070A878A070CC2007E000F098
:1036000036F8A521217069786170A978A170E07001
:103610002046BDE83440042100F0A7BD31BD1B4861
:10362000012902D10122802104E0022904D10122D2
:103630004FF40071FFF7E0BA70471448012902D136
:103640000022802104E0022904D100224FF40071FD
:10365000FFF7D2BA70470D48012908BF802103D077
:10366000022903D14FF40071FFF7CABA7047074827
:10367000012908BF802103D0022903D14FF4007132
:10368000FFF7B4BAFF207047700800200004024022
:103690002DE9F041044682B0A178DFF8F083DFF82D
:1036A000F053DFF8F003491E052958D8DFE801F090
:1036B00003152D334447E67800270BE004EB470061
:1036C00001798DF8001040798DF80100009800F024
:1036D0003AF97F1CB742F1DB33E0E778002606E0D9
:1036E0003019007900F04DF906F80800761CBE424A
:1036F000F6DB00F036F8E078E87004DB3A46414645
:10370000281DFFF767F9391D14E02279E078611D63
:1037100000F055F915E02779E0783A46414600F087
:1037200086F900F01EF804DB3A464146E81CFFF734
:1037300051F9F91C89B20DE0E178017001E0E178FE
:103740004170A5202870042160786870A078A87066
:10375000CC20E8702846BDE8FC4100F006BDBDE87D
:10376000F381A5202870012F60786870A078A87078
:10377000704700B585B02020009001200190022004
:103780000390002005E000B585B0202000900020C7
:103790000190029000A9C048FFF758F905B000BD9C
:1037A000F8B504460025BB4EBB4F0120C5F107010B
:1037B0008840044202D00122282104E0012200F0C6
:1037C00011F80022202100F00EF8307800F0E6FC1D
:1037D000002200F007F8307800F0E0FC6D1C082DA6
:1037E000E3D3F1BD08213846FFF706BAF8B500F07B
:1037F0004AF8FFF7C8FF0026A64F0122082100F073
:1038000046F800F036F820212846FFF7EFF908B116
:1038100000F032F80022082100F039F800F029F811
:10382000761C082EE9D300221DE0F8B500F02BF835
:10383000FFF7A9FF0026974F0122082100F027F883
:1038400000F017F820212846FFF7D0F908B100F062
:1038500013F80022082100F01AF800F00AF8761C8C
:10386000082EE9D3012200F011F8FFF782FF20466D
:10387000F2BD387800F092BC0120C6F10701884003
:103880000419E4B27047844D002401222021284607
:10389000FFF7B2B938B5804C10B10122282104E0FD
:1038A000012200F010F80022202100F00DF8794DDF
:1038B000287800F073FC002200F005F82878BDE8B5
:1038C000324000F06BBC08212046FFF795B92DE986
:1038D000F04104460D4600266E4FDFF8BC81012002
:1038E000C6F106018840044202D00122282103E0EB
:1038F00000F024F8002220214046FFF77DF9FFF771
:10390000B8FF002200F01BF8FFF7B3FF761C072E6C
:10391000E5D315B10122282103E000F00FF80022C1
:1039200020214046FFF768F9FFF7A3FF002200F0CF
:1039300006F83878BDE8F04100F030BC01220821DB
:103940004046FFF759B901B500F06DF800F066F890
:1039500000F069F800F069F800F05CF800F065F834
:103960009DF80000FFF71CFF00F05FF89DF80100D4
:10397000FFF716FF00F052F800F055F8BDE80240DE
:1039800046E010B5044600F04EF800F047F800F0AD
:103990004AF800F04AF800F074F800F046F82046C3
:1039A000FFF7FEFE00F041F8FFF73FFF044600F08E
:1039B0003CF800F038F800F031F8204610BD70B542
:1039C00000F02EF800F02AF800F02DF800F02DF8A5
:1039D00000F020F800F029F82046FFF7E1FE00F0A3
:1039E00024F8002405E0605DFFF7DAFE00F01DF822
:1039F000641CE4B2711E8C42F5DB701910F8010CE6
:103A0000FFF7CEFE00F00AF800F00DF8BDE87040B8
:103A100000203FE71F480021407858E7002039E7A1
:103A200004460D4616460020BAE6012032E77CB572
:103A3000FFF7F6FFFFF7F2FFFFF7F5FFFFF7F5FFE0
:103A400000F01FF8FFF7F1FF2046FFF7A9FEFFF790
:103A5000ECFF002405E0FFF7E8FE6055FFF7E5FF07
:103A6000641CE4B2701E8442F5DBFFF7BFFE7119DF
:103A700001F8010CFFF7D2FFFFF7D5FFBDE8764054
:103A8000C6E704480121407821E70000440D0020EA
:103A90007008002058010020000402402DE9F04188
:103AA000044682B02078DFF80854C00743D5A868E0
:103AB00000F00C00042807D0A86800F00C000828CB
:103AC00009D16868400206D52868800333D560684C
:103AD00088BB012021E16068B0F5803F06D0B0F5D9
:103AE000A02F286806D140F480202860286840F480
:103AF000803005E020F480302860286820F48020A1
:103B00002860606858B1FEF7CCF907462868800342
:103B100011D4FEF7C6F9C01B6528F7D3FAE0FEF70B
:103B2000C0F907462868800305D5FEF7BAF9C01B1F
:103B30006528F7D3EEE02078DFF87863800718D5A2
:103B4000A86810F00C0F07D0A86800F00C00082837
:103B500024D16868400221D42868800702D5E06833
:103B60000128B6D12868216920F0F80040EAC10098
:103B70002860207800073BD56169DFF83C0351B32A
:103B800001210160FEF78DF90746686F80072FD489
:103B9000FEF787F9C01B0328F7D3BBE0E06868B1E4
:103BA00001203060FEF77DF9074628688007D9D4E8
:103BB000FEF777F9C01B0328F7D3ABE03060FEF7C0
:103BC00070F9074628688007D3D5FEF76AF9C01B4D
:103BD0000328F7D39EE00160FEF763F90746686F9C
:103BE000800705D5FEF75DF9C01B0328F7D391E0E8
:103BF000207840074FD500200090286CDFF8BC8269
:103C000040F080502864286C00F0805000900098AC
:103C1000D8F8000040F48070C8F80000FEF741F9C1
:103C20000746D8F80000C00505D4FEF73AF9C01BD6
:103C30000328F6D36EE0A068012805D00528286F78
:103C400006D140F004002867286F40F0010005E02D
:103C5000400840002867286F20F00400286741F2E0
:103C60008938A06858B1FEF71CF90746286F80070D
:103C700011D4FEF716F9C01B4045F7D34AE0FEF712
:103C800010F90746286F800705D5FEF70AF9C01B13
:103C90004045F7D33EE0A06900283DD0A96801F077
:103CA0000C0108293FF415AF022828D100F037F89D
:103CB00007462868800105D5FEF7F3F8C01B0328E6
:103CC000F7D327E0E069216A0843616A40EA81107E
:103CD000A16A891EC903090C50EA0140E16A40EA61
:103CE00001606860012000F01BF807462868800129
:103CF00012D4FEF7D6F8C01B0328F7D30AE000F071
:103D00000EF807462868800106D5FEF7CAF8C01BE2
:103D10000328F7D3032000E00020BDE8F68100204F
:103D20003066FEF7BEB82DE9F843654E04463068AC
:103D3000884600F00F00404506D286F800803068C3
:103D400000F00F00404566D12078594F800705D517
:103D5000B868A16820F0F0000843B8602078C00778
:103D60004DD56068012802D13968890305E0022831
:103D700018BF032803D13968890103D44BE039689F
:103D8000890748D5B968890850EA8100B860FEF70C
:103D900088F80546606841F2893901280AD1B86877
:103DA00000F00C0004282AD0FEF77BF8401B4845A1
:103DB000F5D322E002280AD1B86800F00C000828E8
:103DC0001DD0FEF76EF8401B4845F5D315E00328DB
:103DD0000AD1B86800F00C000C2810D0FEF761F88A
:103DE000401B4845F5D308E0B86810F00C0F06D02A
:103DF000FEF757F8401B4845F6D303202FE0306804
:103E000000F00F00804508D286F80080306800F08E
:103E10000F00404501D0012021E02078400705D562
:103E2000B868E16820F4E0500843B86020780007E3
:103E300006D5B868216920F4604040EAC100B86046
:103E400000F00FF8B9680FF28C02C1F30311895C1E
:103E5000C8401C4908600020FEF70CF80020BDE8AF
:103E6000F28310B5184919484B68194A03F00C033E
:103E7000042B02D0082B02D010BD104610BD0B68D9
:103E80000C6803F03F0364024CBFB2FBF3F0B0FBDD
:103E9000F3F00A680968C1F30141C2F38812491CB2
:103EA00050434900B0FBF1F010BD06480068704770
:103EB0000038024000004742800E47420070004038
:103EC000003C024050010020043802400024F4006D
:103ED00040787D0100000000010203040102030498
:103EE0000607080970B505460024287C30B94FF450
:103EF000007300F032F84FF4007303E0402300F049
:103F00002CF84023022201212846FEF7E3FC082377
:103F1000032282212846FEF7DDFC4FF40770FCF7F0
:103F200051FF0600C5F8186208BF012413D0D5F868
:103F30001C020068804706F5017004614461287C1A
:103F4000D6F8042200280CBF4FF40073402301214F
:103F50002846FEF71EFD204670BD0222812128461C
:103F6000FEF7B8BC10B504468121FEF7C3FC012161
:103F70002046FEF7BFFC82212046FEF7BBFCD4F8AA
:103F8000180250B1D4F81C0240688047D4F81802D7
:103F9000FDF764F80020C4F81802002010BD70B5C9
:103FA0000D4604462978D4F8186211F0600020D03C
:103FB000202826D1EA8804F50673A2B1687809069C
:103FC00006D55B6831469B689847EA88314615E01C
:103FD00086F800023146E88886F801022046EA8821
:103FE000FFF7B0FA0DE05B6868789B682946984750
:103FF00007E068780A2804D1012226492046FFF705
:1040000092FA002070BDD0F8180220B10021C0F84B
:104010001412002070470220704738B50446D4F8C7
:104020001852FEF7C2FCC5F80C02D4F8180248B1C9
:10403000D4F81C22D5F80402D26805F50371904724
:10404000002032BD022032BD10B5D0F8184200F574
:1040500006704368002B1CBF94F80002FF2807D0AD
:1040600094F801229B6821469847FF2084F80002BB
:10407000002010BD43210180074870474321018083
:104080000648704743210180054870470A21018096
:1040900004487047640E0020440000200000002007
:1040A0008800002044010020022211B1C0F81C1237
:1040B000002210467047D0F81802C0F80812C0F865
:1040C000102200207047D0F81802C0F80412002017
:1040D000704780B5D0F8181281B101F50272D3682B
:1040E00053B90123D3609368D1F808229BB2812190
:1040F000FEF743FC002002BD012002BD022002BDEC
:1041000080B5D0F8181261B1D1F80422017C0029E1
:104110000CBF4FF4007340230121FEF73AFC00204E
:1041200002BD022002BD000038B5194C194D002215
:1041300005F580712046FFF7BEFF29462046FFF7B0
:10414000C2FF002032BD002070470020704710B52C
:104150000F4C01462046FFF7B6FF2046FFF7D0FF81
:104160000D4855210170002010BD10B5084CD4F841
:104170001822D2F814220AB1012010BD0A460146C5
:104180002046FFF798FF2046BDE81040FFF7A1BF8B
:104190004C05002070070020650E002001B481B09E
:1041A00018210198484300900098411E0091002872
:1041B000FAD102B070470000122008801148704701
:1041C000042008801048704710B5104C0FF24000D2
:1041D00003E010B50D4C0FF250000A462146FFF7E0
:1041E00080F9204610BD10B5084C0FF25000F4E7DE
:1041F00010B5064C0FF25400EFE710B5034C0FF268
:104200005800EAE720010020540100207009002036
:1042100053544D3332205669727475616C20436F6C
:104220006D506F727400000053544D6963726F6576
:104230006C656374726F6E69637300003030303088
:1042400030303030303031410000000043444320F2
:10425000436F6E666967000043444320496E74658E
:1042600072666163650000000E480F4A016841F400
:10427000700101600D48016841F0010101600021F9
:10428000816001681140016009494160016821F4C1
:10429000802101600021C1604FF00061054801608C
:1042A0007047000088ED00E0FFFFF6FE0038024096
:1042B0001030002408ED00E010B5074979441831AA
:1042C000064C7C44163404E0081D0A6851188847DF
:1042D0000146A142F8D110BD0800000028000000EE
:1042E000D3E6FFFF0C0D00005C0100200000000081
:1042F00063D2FFFF5C010000E80100000000002025
:10430000000000004EF68851CEF20001086840F42B
:10431000700008604FF00070E1EE100A7047000076
:1043200080B5FDF7B9FDBDE80140FDF737BE014896
:10433000FDF7CFBE5C01002000F009F8002801D095
:10434000FFF7BAFF0020FEF7A9FD00F002F80120F8
:10435000704700F001B8000007463846FDF724F921
:10436000FBE7000001488047014800476942000818
:1043700075430008C046C046FFF7C4FFFFF7DCFFE7
:10438000FFF7FEBFFFF7FEBFFFF7FEBFFFF7FEBF61
:10439000FFF7FEBFFFF7FEBFFFF7FEBFFFF7FEBF51
:1043A000FFF7FEBFFFF7FEBFFFF7FEBFFFF7FEBF41
:1043B000FFF7FEBFFFF7FEBFFFF7FEBFFFF7FEBF31
:1043C000FFF7FEBFFFF7FEBFFFF7FEBFFFF7FEBF21
:1043D000FFF7FEBFFFF7FEBFFFF7FEBFFFF7FEBF11
:1043E000FFF7FEBFFFF7FEBFFFF7FEBFFFF7FEBF01
:1043F000FFF7FEBFFFF7FEBFFFF7FEBFFFF7FEBFF1
:10440000FFF7FEBFFFF7FEBFFFF7FEBFFFF7FEBFE0
:10441000FFF7FEBFFFF7FEBFFFF7FEBFFFF7FEBFD0
:10442000FFF7FEBFFFF7FEBFFFF7FEBFFFF7FEBFC0
:10443000FFF7FEBFFFF7FEBFFFF7FEBFFFF7FEBFB0
:10444000FFF7FEBFFFF7FEBFFFF7FEBFFFF7FEBFA0
:10445000FFF7FEBFFFF7FEBFFFF7FEBFFFF7FEBF90
:10446000FFF7FEBFFFF7FEBFFFF7FEBFFFF7FEBF80
:10447000FFF7FEBFFFF7FEBFFFF7FEBFFFF7FEBF70
:10448000FFF7FEBFFFF7FEBFFFF7FEBFFFF7FEBF60
:10449000FFF7FEBFFFF7FEBFFFF7FEBFFFF7FEBF50
:1044A000FFF7FEBFFFF7FEBFFFF7FEBFFFF7FEBF40
:1044B000FFF7FEBFFFF7FEBFFFF7FEBFFFF7FEBF30
:1044C000FFF7FEBFFFF7FEBFFFF7FEBFFFF7FEBF20
:1044D000FFF7FEBFFFF7FEBFFFF7FEBFFFF7FEBF10
:1044E00009024300020100C0320904000001020277
:1044F000010005240010010524010001042402022A
:1045000005240600010705820308001009040100C4
:10451000020A0000000705010200020007058102EF
:104520000002000009024300020100C03209040039
:104530000001020201000524001001052401000110
:104540000424020205240600010705820308001066
:1045500009040100020A00000007050102400000F2
:10456000070581024000000009074300020104C062
:1045700032090400000102020100052400100105B7
:10458000240100010424020205240600010705821B
:10459000030800FF09040100020A000000070501EA
:1045A000024000000705810240000000E53E0008CF
:1045B000653F00089F3F00080000000049400008D8
:1045C000074000081B400008000000000000000039
:1045D000000000007D40000875400008854000088C
:1045E0008D400008B9410008C1410008D3410008CE
:1045F000C9410008E7410008F1410008FB410008FB
:10460000120100020202004083044057000201022E
:104610000301000029410008474100084B41000800
:104620004F4100080A06000200000040010000009F
:0C4630000024F400040309040A650000E3
:040000050800437537
:00000001FF
